:02000000EF2BE4
:1006AC008134423424341834243442348134672362
:1006BC000130831685008312051085100511051273
:1006CC00080083129F171F13F3309F0583161F0812
:1006DC008F3940389F001F08F03901389F00831272
:1006EC001F1408008312A901AA0127082A02031D5E
:1006FC00812B2608290203180800C730A800862B76
:10070C00A80B852B892B8A2B01308312A907031880
:10071C00AA0A0030AA077B2B5D238312AC0106309A
:10072C002C020318932B2C082D3E840083130008F5
:10073C00AC23CD2383122108A7002008A600782320
:10074C0001308312AB002B08AC07952B8312A10050
:10075C00A301083023020318CA2B21080139A00079
:10076C002008A2002208031DBD2B0511BE2B051568
:10077C00851485100310A10C0130A0002008A307DC
:10078C0008302302031CB32B051605120800831234
:10079C00A401A5019F149F18D12B1E08A200A30130
:1007AC002208A300A2012208A4002308A500831696
:1007BC001E0883122407A20025080318250AA3008B
:1007CC002208A4002308A5002508A1002408A000E5
:1007DC0008005623AD005723AE005823AF00592311
:1007EC00B0005A23B1005B23B2005C23B300830139
:0207FC00922B3E
:02400E00B431CB
:00000001FF
