:02000000EF2BE4
:10070E008134423424341834243442348134F03069
:10071E0083169F0507308312990483168501831271
:10072E0085100511051208008E238312AD010630C7
:10073E002D0203189C2B2D08203E840083130008E5
:10074E00CE23FA308312A7000030A800B423013064
:10075E008312AC002C08AD079E2B8312AA01AB01AD
:10076E0028082B02031DBD2B27082A020318080098
:10077E00C730A900C22BA90BC12BC52BC62B01302C
:10078E008312AA070318AB0A0030AB07B72B8312EC
:10079E00A800AA0108302A020318EC2B28080139F8
:1007AE00A7002708A9002908031DDF2B0511E02B40
:1007BE000515851485100310A80C0130A700270815
:1007CE00AA0708302A02031CD52B051605120800AD
:1007DE008723A0008823A1008923A2008A23A300D7
:1007EE008B23A4008C23A5008D23A60083019B2BB5
:02400E00B431CB
:00000001FF
